:020000040000FA
:10000000100200200102000015020000170200008B
:10001000190200001902000019020000000000008F
:1000200000000000000000000000000019020000B5
:10003000190200000000000019020000190200006F
:100040001902000019020000190200001902000044
:100050001902000019020000190200001902000034
:100060001902000019020000190200001902000024
:100070001902000019020000190200001902000014
:100080001902000019020000190200001902000004
:1000900019020000190200001902000019020000F4
:1000A00019020000190200001902000019020000E4
:1000B00019020000190200001902000019020000D4
:1000C00019020000190200001902000019020000C4
:1000D00019020000190200001902000019020000B4
:1000E00019020000190200001902000019020000A4
:1000F0001902000019020000190200001902000094
:100100001902000019020000190200001902000083
:100110001902000019020000190200001902000073
:100120001902000019020000190200001902000063
:100130001902000019020000190200001902000053
:100140001902000019020000190200001902000043
:100150000000000000000000190200001902000069
:10016000190200001902000000000000190200003E
:100170001902000019020000190200001902000013
:100180001902000019020000190200001902000003
:1001900019020000190200001902000019020000F3
:1001A00019020000190200001902000019020000E3
:1001B00019020000190200001902000019020000D3
:1001C00019020000190200001902000019020000C3
:1001D00019020000190200001902000019020000B3
:1001E00019020000190200001902000019020000A3
:1001F0001902000019020000190200001902000093
:100200004EF68850CEF20000016841F470010160A2
:1002100000F004B8FEE7FEE7FEE70000DFF80CD0D0
:1002200000F00AF800480047010B0000100200200F
:100230000138FDD170470000064C074D06E0E0682C
:1002400040F0010394E8070098471034AC42F6D31D
:10025000FFF7E8FF98100000B810000010B50A483A
:1002600000F05AFB00220321084800F0EFF80A23AF
:1002700001220321054800F0FDF80321034800F0A6
:10028000B7F90349087010BD080800F000D003401A
:10029000040000202DE9F04105460E4603212248C6
:1002A00000F0A6F907460EB1F84330701F480078F9
:1002B00087EA00041E4800781E49097848401C4916
:1002C00008701C480078C0431A4908701848007824
:1002D00020401749087017480078204015490870D9
:1002E00013480078097808431049097808400F49F5
:1002F00008700F4801780F480078014327EA010091
:100300000A490978084309490870094800780949E9
:1003100009780843444005B12C7004480078C04374
:10032000C0B2BDE8F081000000D00340040000200E
:10033000050000200600002010B50E4800F0ECFA81
:100340000D4800F0E9FA012000F030F940F20140D8
:1003500000F02CF903214FF0402000F05AF905215C
:10036000064800F019FB064A4FF4E131002000F086
:1003700057FB10BD000800F0001800F000C000405E
:100380000024F40010B50A4800F0C6FA00BF08487F
:1003900000F0ECFA0028FAD07021064800F02BF9A2
:1003A0000A2301227021034800F064F810BD000008
:1003B0000B0800F00030064070B5044600222021F2
:1003C000214800F034F9012000F082FB00221021C6
:1003D0001D4800F02CF9012000F07AFB002523E0F5
:1003E00004F4004028B140221146174800F01FF9DC
:1003F00004E000224021144800F019F9202211469F
:10040000114800F014F9012000F062FB4FF6FF7074
:1004100000EA4404012000F05BFB002220210A488E
:1004200000F005F9681CC5B2102DD9DB1022114669
:10043000054800F0FCF8012000F04AFB202211469C
:10044000014800F0F4F870BD00300640D0F80034E8
:1004500012F0010F14BF0B438B43C0F8003412F0AD
:10046000020FD0F8202414BF114322EA0101C0F882
:10047000201470472DE9F00301264FF0000C0325EE
:10048000C2F3411706FA0CF40C4211D0D0F8C48F15
:100490004FEA4C0405FA04F928EA0908C0F8C48FA9
:1004A000D0F8C48F07FA04F448EA0404C0F8C44F33
:1004B0000CF1010C0CF0FF0CBCF1080FE2D3D0F8EA
:1004C00000C512F0010F14BF4CEA010C2CEA010C1C
:1004D000C0F800C5D0F804C512F0020F14BF4CEAF2
:1004E000010C2CEA010CC0F804C5D0F808C512F0C4
:1004F000040F14BF4CEA010C2CEA010CC0F808C52B
:10050000D0F818C512F0080F14BF4CEA010C2CEA01
:10051000010CC0F818C512F0100FD0F83C2514BF1C
:100520000A438A43C0F83C25D0F80C2513F0010F8C
:1005300014BF0A438A43C0F80C25D0F8102513F0E5
:10054000020F14BF0A438A43C0F81025D0F81425BF
:1005500013F0040F14BF0A438A43C0F81425D0F8DF
:100560001C2513F0080F14BF0A438A43C0F81C254A
:10057000D0F8442513F4007F14BF0A438A43C0F81F
:100580004425D0F8402513F4407F14BF0A438A4322
:10059000C0F84025D0F82825002B0CBF114322EAD3
:1005A0000101C0F82815BDE8F00370470E4AC0F3FA
:1005B0000741D26E01238B401A420C4A1ABF02EB4C
:1005C000C101496852F83110020AD1F82C354FF0B8
:1005D0000F0C0CFA02FC00F00F0023EA0C03904011
:1005E0001843C1F82C05704700E00F40A00D000033
:1005F00050F82100704730B50C460546082301220B
:10060000FFF738FF21462846BDE830400122FFF7BA
:100610001DBF30B50C4605460222FFF717FF2146E5
:100620002846BDE8304008230122FFF723BF40F8E9
:10063000212070472DE9F003AD4D02462868AD4BEF
:100640001840A0F18053B3F5A02358D002F0380928
:10065000DFF8A482C2F38414B9F1100F24D0B9F1E9
:10066000300F04BF47F230504FF400130CD0382045
:10067000904304BF4FF40040C30105D012F0380F7F
:100680001CBF0020034613D09C4F12F4605F4FF054
:10069000000618BF00222CD057F8324044457DD3C5
:1006A00007EBC2025268DFE0002340461524EBE767
:1006B000A4F10900122822D29148D5F87CC04FF04D
:1006C0004C7350F824002CF01C0C072CA8BF4CF0E5
:1006D000100CC5F87CC02E6D4FF4002C16F4807FF2
:1006E000D2D1BCF1010C0AD02E6D16F4807FF8D067
:1006F000CAE712F0380F18BFB9F1100F03D0BDE8E8
:10070000F00300207047C2F30268DFF8F8C100224E
:1007100057F83290E14503D307EBC202526803E079
:10072000521C062AF4D33246C5F8C020D5F8B020B2
:10073000DFF8D4C102EA0C0242F00042C5F8B02052
:10074000DFF8C8C1A4F109024C1E5CF828C0A4441B
:10075000BCFBF1FCD5F8B0101943C5F8B01008EB9C
:10076000C80101EB41046A4902EB420201EBC401FA
:1007700001EB82046468C5F86441D5F864416FF008
:10078000FF0808EB0C2C44EA0C0CC5F864C151F8C6
:100790002210D5F8602102F4000200E05FE011436E
:1007A000C5F86011D5F86011D5F86021C1F3892131
:1007B000C2F30904D5F86421C2F3042202F1010C4A
:1007C000D5F8642102F01F02521CB0FBF2F04A0976
:1007D000C2F100084443424301EB481104EB5212BA
:1007E000484302EB9020B0FBFCF041080846002291
:1007F00057F832C0844503D307EBC200466802E0D5
:10080000521C062AF4D3C5F8C060D5F8600110F474
:10081000000F1DBFD5F8B00040F08040C5F8B00013
:10082000D5F8600104BF40F40000C5F860014FF442
:100830000040D5F8682112F0010F02D1401E0028B7
:10084000F7DC002808BF002148D0D5F8B0001843D5
:1008500040F0010040F01040C5F8B0003EE0521CEE
:10086000062AFFF419AF3246C5F8C020D5F860213A
:1008700022F40002C5F86021D5F8B020DFF894C05A
:1008800002EA0C0242F00042C5F8B020002908BF7D
:100890004FF0000C0AD0B0FBF1FCBCF1000F18BF08
:1008A000ACF1010C0CF10101B0FBF1F108460022A2
:1008B00057F83240844203D307EBC200466802E097
:1008C000521C062AF4D3C5F8C060D5F8B00043EA3C
:1008D0008C22104340F00040C5F8B000D5F8B000BD
:1008E00020F47000C5F8B000BDE8F003084670477A
:1008F00000E00F400000FF700024F40054100000DE
:10090000380E000040787D0100FC0FE0300E000042
:10091000A40E0000FF0300EFC0F307230749C0B295
:10092000194401F07043C1F3130143EA411141EA54
:10093000800040F0007001220260704700E60F4026
:10094000C0F307220849C0B2114401F07042C1F35C
:10095000130142EA411141EA800040F00070006852
:10096000002818BF0120704700E30F40C0F30722A2
:100970000849C0B2114401F07042C1F3130142EAC8
:10098000411141EA800040F000700068002818BF63
:100990000120704700EA0F40C0F8C81F7047D0F828
:1009A00018C01CF0080FFAD1D0F82CC02CF0100C95
:1009B000C0F82CC0D0F830C02CF0010C2CF4407CD6
:1009C000C0F830C0D0F830C0B1EB021F34BF4CF0DB
:1009D000200C2CF0200CC0F830C038BF5208C900E1
:1009E000B1FBF2F1491C49088A09426201F03F015A
:1009F0008162C36200218161C16A41F01001C1625C
:100A0000016B40F20132114301637047C16A41F04A
:100A10001001C162016B40F2013211430163704762
:100A200070B504460D4616460E4951F82400FFF7EE
:100A300087FF00B970BD0C4850F824000B490860CE
:100A4000084951F82400FFF767FF60232A46314622
:100A500006480068FFF7A3FF04480068FFF7D6FFC9
:100A600000BFE7E7FC0B0000F00B000008000020CF
:100A70009FED051ADFED050A40EE010AFCEEE00AE3
:100A800010EE901A88B2704700B821460000004767
:100A900010B52DED028BB0EE408AB0EE480AFFF79C
:100AA000E7FF04462046FFF787FCBDEC028B10BD34
:100AB00002E008C8121F08C1002AFAD17047704727
:100AC000002001E001C1121F002AFBD17047000085
:100AD00070B50446640800BF074800680749B0FBCA
:100AE000F1F00321B0FBF1F52846FFF7A1FB200050
:100AF000A4F10104F0D170BD0000002040420F00BD
:100B00002DED028B82B032493248FFF793FD324916
:100B100008603248FFF700FF00BF3048FFF726FFAC
:100B20000028FAD0FFF79AFBFFF706FCFFF72AFC34
:100B300001212B48FFF75FFD49E0002101A8FFF7E5
:100B4000A9FB04469DF8040000F00100E8B104F0A0
:100B50000100D0B1012211462148FFF768FD9FED49
:100B6000210A38EE000AB0EE408AB0EE080AB4EE70
:100B7000C08AF1EE10FA03DD9FED1B0AB0EE408A49
:100B8000B0EE480AFFF784FF21E09DF8040000F072
:100B90000200E0B104F00200C8B1002201211048B7
:100BA000FFF745FD9FED0F0A38EE400AB0EE408A90
:100BB000B8EE080AB4EEC08AF1EE10FA03D29FED47
:100BC0000A0AB0EE408AB0EE480AFFF761FFB4E7C8
:100BD000000E2707800600F1000000200C0800F03E
:100BE00000400640CDCCCC3D000000008410000049
:100BF00000C0004000D0004000E00040001800F0BD
:100C0000011800F0021800F0004000401000000041
:100C1000008005401000000000500040110000005E
:100C2000009005401100000000600040120000002C
:100C300000A00540120000000070004013000000FA
:100C400000B0054013000000004002401400000006
:100C500000C0054014000000005002402E000000BB
:100C600000D005402E000000006002402F00000070
:100C700000E005402F00000000700240300000003E
:100C800000F005403000000000D0034046000000A6
:100C9000000006404600000000100640470000002B
:100CA0000020064048000000003006407F000000A1
:100CB0000040064080000000005006408400000014
:100CC000006006408C000000004000401000000062
:100CD000008005401000000000500040110000009E
:100CE000009005401100000000600040120000006C
:100CF00000A005401200000000700040130000003A
:100D000000B0054013000000004002401400000045
:100D100000C0054014000000005002402E000000FA
:100D200000D005402E000000006002402F000000AF
:100D300000E005402F00000000700240300000007D
:100D400000F005403000000000D0034043000000E8
:100D50000000064043000000001006404400000070
:100D6000002006404500000000300640580000000A
:100D70000040064059000000005006405C000000A2
:100D80000060064064000000007006406C00000037
:100D9000008006406D000000009006407F000000CB
:100DA0000040004000800540005000400090054099
:100DB0000060004000A005400070004000B0054009
:100DC0000040024000C005400050024000D00540F5
:100DD0000060024000E005400070024000F0054065
:100DE00000D00340000006400010064000100640FE
:100DF000002006400020064000300640003006403B
:100E000000400640004006400050064000500640AA
:100E1000006006400060064000700640007006401A
:100E2000008006400080064000900640009006408A
:100E300000688909001C4E0E40420F0000201C0073
:100E400080841E0000802500999E360000403800F6
:100E500000093D0000803E0000004B00404B4C006C
:100E600000204E00808D5B0000C05D00008070009F
:100E700000127A0000007D0080969800001BB700E9
:100E80000080BB00C0E8CE00647ADA000024F400E1
:100E90000000FA0080A81201002D310100366E0119
:100EA00040787D01400000000000000000010000CB
:100EB0003E0008000000000000010000A00000004B
:100EC0000200000000010000345401000000000096
:100ED000000100002B70060000000000000100006F
:100EE00028000000000000000001000027000100B1
:100EF00000000000000100002000000000000000D1
:100F0000000100005000000002000000000100008D
:100F10001AAC000000000000000100001794090056
:100F2000000000000001000016980500000000000D
:100F3000000100001400000000000000000100009B
:100F4000138008000000000000010000A000000065
:100F50000800000000010000100000000000000078
:100F60000001000028000000020000000001000055
:100F700040000000040000000001000060000000CC
:100F800000000000000100005D000C0000000000F7
:100F900000010000500000000000000000010000FF
:100FA0004E000200000000000001000041AC010002
:100FB00000000000000100003C00000000000000F4
:100FC000000100003A80090000000000000100005C
:100FD00030000000000000000001000028000000B8
:100FE00000000000000100002700010000000000D8
:100FF0000001000023600600000000000001000066
:101000002160080000000000000100001E00000038
:1010100000000000000100001DC0040000000000EE
:10102000000100005000000002000000000100006C
:101030001800000000000000000100001400000083
:10104000000000000001000060000000040000003B
:10105000000100000024F40030003000005A620259
:101060009100910000879303D200D20000B4C40421
:101070001301130100E1F50554015401000E270787
:101080009501950130313233343536373839616264
:101090006364656600000000B810000000000020D6
:1010A00010000000B00A0000C8100000100000206E
:1010B00000020000C00A0000000000000300000061
:0810C000000000000000000028
:040000050000021DD8
:00000001FF
