:020000040000FA
:10000000100200200102000015020000170200008B
:10001000190200001902000019020000000000008F
:1000200000000000000000000000000019020000B5
:10003000190200000000000019020000190200006F
:100040001902000019020000190200001902000044
:100050001902000019020000190200001902000034
:100060001902000019020000190200001902000024
:100070001902000019020000190200001902000014
:100080001902000019020000190200001902000004
:1000900019020000190200001902000019020000F4
:1000A00019020000190200001902000019020000E4
:1000B00019020000190200001902000019020000D4
:1000C00019020000190200001902000019020000C4
:1000D00019020000190200001902000019020000B4
:1000E00019020000190200001902000019020000A4
:1000F0001902000019020000190200001902000094
:100100001902000019020000190200001902000083
:100110001902000019020000190200001902000073
:100120001902000019020000190200001902000063
:100130001902000019020000190200001902000053
:100140001902000019020000190200001902000043
:100150000000000000000000190200001902000069
:10016000190200001902000000000000190200003E
:100170001902000019020000190200001902000013
:100180001902000019020000190200001902000003
:1001900019020000190200001902000019020000F3
:1001A00019020000190200001902000019020000E3
:1001B00019020000190200001902000019020000D3
:1001C00019020000190200001902000019020000C3
:1001D00019020000190200001902000019020000B3
:1001E00019020000190200001902000019020000A3
:1001F0001902000019020000190200001902000093
:100200004EF68850CEF20000016841F470010160A2
:1002100000F004B8FEE7FEE7FEE70000DFF80CD0D0
:1002200000F006F800480047A50F0000100200206B
:10023000064C074D06E0E06840F0010394E8070033
:1002400098471034AC42F6D3FFF7ECFFD816000005
:10025000F816000010B50A4800F092FC00220321B5
:10026000084800F027FA0A2301220321054800F07C
:1002700035FA0321034800F0EFFA0349087010BD76
:10028000080800F000D00340000000202DE9F041F4
:1002900005460E460321224800F0DEFA07460EB15D
:1002A000F84330701F48007887EA00041E48007841
:1002B0001E49097848401C4908701C480078C04312
:1002C0001A490870184800782040174908701748E4
:1002D00000782040154908701348007809780843D1
:1002E0001049097808400F4908700F4801780F48F5
:1002F0000078014327EA01000A49097808430949BF
:10030000087009480078094909780843444005B154
:100310002C7004480078C043C0B2BDE8F0810000F2
:1003200000D0034000000020010000200200002057
:1003300010B50E4800F024FC0D4800F021FC01200F
:1003400000F068FA40F2014000F064FA03214FF037
:10035000402000F092FA0521064800F057FC064ABA
:100360004FF4E131002000F095FC10BD000800F0D2
:10037000001800F000C000400024F40010B5304820
:1003800000F0FEFB2E48401E00F0FAFB2C48C01C7B
:1003900000F0F6FB2A48801E00F0F2FB28480A38DD
:1003A00000F0EEFB00BF264800F014FC0028FAD055
:1003B00000BF2348401E00F00DFC0028F9D000BF0C
:1003C0001F48C01C00F006FC0028F9D000BF1C48E4
:1003D000801E00F0FFFB0028F9D00721194800F02B
:1003E0003EFA1F21184800F03AFA0F21174800F092
:1003F00036FAC021164800F032FA0421154800F000
:100400002EFA0A23012207210E4800F067F90A2379
:1004100001221F210C4800F061F90A2301220F215B
:100420000A4800F05BF90A230122C021084800F0C5
:1004300055F90A2301220421064800F04FF910BDA6
:100440000B0800F000300640002006400060064027
:10045000001006400050004010B508490A7809789D
:10046000491C064B1970064931F8120000F00CF8CF
:100470000248017803A000F035FC10BD09000020FF
:100480004810000025640A0010B504462046E11714
:1004900004EB9171C1F38F0404221146804800F0EF
:1004A000FAF904F4005028B1102211467D4800F0FA
:1004B000F2F904E0002210217A4800F0ECF94FF63E
:1004C000FF7000EA440404F4005028B140221146B1
:1004D000754800F0E0F904E000224021724800F085
:1004E000DAF94FF6FF7000EA440404F4005028B132
:1004F000802211466C4800F0CEF904E000228021F1
:10050000694800F0C8F94FF6FF7000EA440404F4AB
:10051000005028B108221146644800F0BCF904E0FC
:1005200000220821614800F0B6F94FF6FF7000EA9A
:10053000440404F4005028B1042211465B4800F042
:10054000AAF904E000220421584800F0A4F94FF66B
:10055000FF7000EA440404F4005028B1022211465E
:10056000524800F098F904E0002202214F4800F0C0
:1005700092F94FF6FF7000EA440404F4005028B1E9
:1005800001221146494800F086F904E000220121C9
:10059000464800F080F94FF6FF7000EA440404F486
:1005A000005028B1082211463E4800F074F904E0DA
:1005B000002208213B4800F06EF94FF6FF7000EA78
:1005C000440404F4005028B104221146354800F0D8
:1005D00062F904E000220421324800F05CF94FF691
:1005E000FF7000EA440404F4005028B102221146CE
:1005F0002C4800F050F904E000220221294800F0C4
:100600004AF94FF6FF7000EA440404F4005028B1A0
:1006100001221146234800F03EF904E000220121A6
:10062000204800F038F94FF6FF7000EA440404F463
:10063000005028B1012211461D4800F02CF904E0B9
:10064000002201211A4800F026F94FF6FF7000EA57
:10065000440404F4005028B102221146144800F06A
:100660001AF904E000220221114800F014F94FF6B3
:10067000FF7000EA440404F4005028B1042211463B
:100680000B4800F008F904E000220421084800F0BB
:1006900002F900220421024800F0FDF810BD00001C
:1006A0000050004000200640001006400060064058
:1006B00000300640D0F8003412F0010F14BF0B4395
:1006C0008B43C0F8003412F0020FD0F8202414BF7E
:1006D000114322EA0101C0F8201470472DE9F0030C
:1006E00001264FF0000C0325C2F3411706FA0CF463
:1006F0000C4211D0D0F8C48F4FEA4C0405FA04F92B
:1007000028EA0908C0F8C48FD0F8C48F07FA04F4A7
:1007100048EA0404C0F8C44F0CF1010C0CF0FF0CC3
:10072000BCF1080FE2D3D0F800C512F0010F14BFDE
:100730004CEA010C2CEA010CC0F800C5D0F804C545
:1007400012F0020F14BF4CEA010C2CEA010CC0F8A5
:1007500004C5D0F808C512F0040F14BF4CEA010C10
:100760002CEA010CC0F808C5D0F818C512F0080F23
:1007700014BF4CEA010C2CEA010CC0F818C512F0A9
:10078000100FD0F83C2514BF0A438A43C0F83C251B
:10079000D0F80C2513F0010F14BF0A438A43C0F8A8
:1007A0000C25D0F8102513F0020F14BF0A438A431A
:1007B000C0F81025D0F8142513F0040F14BF0A4315
:1007C0008A43C0F81425D0F81C2513F0080F14BF75
:1007D0000A438A43C0F81C25D0F8442513F4007F4F
:1007E00014BF0A438A43C0F84425D0F8402513F4C7
:1007F000407F14BF0A438A43C0F84025D0F828251B
:10080000002B0CBF114322EA0101C0F82815BDE8F6
:10081000F00370470E4AC0F30741D26E01238B40AC
:100820001A420C4A1ABF02EBC101496852F8311052
:10083000020AD1F82C354FF00F0C0CFA02FC00F034
:100840000F0023EA0C0390401843C1F82C057047B1
:1008500000E00F40E013000050F82100704730B571
:100860000C46054608230122FFF738FF214628469B
:10087000BDE830400122FFF71DBF30B50C460546EC
:100880000222FFF717FF21462846BDE83040082323
:100890000122FFF723BF40F8212070472DE9F00324
:1008A000AD4D02462868AD4B1840A0F18053B3F51A
:1008B000A02358D002F03809DFF8A482C2F38414D0
:1008C000B9F1100F24D0B9F1300F04BF47F2305006
:1008D0004FF400130CD03820904304BF4FF4004075
:1008E000C30105D012F0380F1CBF0020034613D0FF
:1008F0009C4F12F4605F4FF0000618BF00222CD00E
:1009000057F8324044457DD307EBC2025268DFE01E
:10091000002340461524EBE7A4F10900122822D257
:100920009148D5F87CC04FF04C7350F824002CF05F
:100930001C0C072CA8BF4CF0100CC5F87CC02E6D09
:100940004FF4002C16F4807FD2D1BCF1010C0AD0F8
:100950002E6D16F4807FF8D0CAE712F0380F18BF5A
:10096000B9F1100F03D0BDE8F00300207047C2F3C7
:100970000268DFF8F8C1002257F83290E14503D34E
:1009800007EBC202526803E0521C062AF4D3324637
:10099000C5F8C020D5F8B020DFF8D4C102EA0C02B7
:1009A00042F00042C5F8B020DFF8C8C1A4F1090246
:1009B0004C1E5CF828C0A444BCFBF1FCD5F8B01078
:1009C0001943C5F8B01008EBC80101EB41046A49AE
:1009D00002EB420201EBC40101EB82046468C5F83A
:1009E0006441D5F864416FF0FF0808EB0C2C44EA31
:1009F0000C0CC5F864C151F82210D5F8602102F43E
:100A0000000200E05FE01143C5F86011D5F8601105
:100A1000D5F86021C1F38921C2F30904D5F8642116
:100A2000C2F3042202F1010CD5F8642102F01F0286
:100A3000521CB0FBF2F04A09C2F1000844434243A1
:100A400001EB481104EB5212484302EB9020B0FB3B
:100A5000FCF041080846002257F832C0844503D311
:100A600007EBC200466802E0521C062AF4D3C5F820
:100A7000C060D5F8600110F4000F1DBFD5F8B000BC
:100A800040F08040C5F8B000D5F8600104BF40F4E4
:100A90000000C5F860014FF40040D5F8682112F05D
:100AA000010F02D1401E0028F7DC002808BF0021FA
:100AB00048D0D5F8B000184340F0010040F0104095
:100AC000C5F8B0003EE0521C062AFFF419AF3246CA
:100AD000C5F8C020D5F8602122F40002C5F86021D5
:100AE000D5F8B020DFF894C002EA0C0242F00042D0
:100AF000C5F8B020002908BF4FF0000C0AD0B0FBA9
:100B0000F1FCBCF1000F18BFACF1010C0CF10101BC
:100B1000B0FBF1F10846002257F83240844203D37B
:100B200007EBC200466802E0521C062AF4D3C5F85F
:100B3000C060D5F8B00043EA8C22104340F000407A
:100B4000C5F8B000D5F8B00020F47000C5F8B000CA
:100B5000BDE8F0030846704700E00F400000FF705A
:100B60000024F400941600007814000040787D0101
:100B700000FC0FE070140000E4140000FF0300EF1D
:100B8000C0F307230749C0B2194401F07043C1F311
:100B9000130143EA411141EA800040F00070012254
:100BA0000260704700E60F40C0F307220849C0B258
:100BB000114401F07042C1F3130142EA411141EACC
:100BC000800040F000700068002818BF01207047C6
:100BD00000E30F40C0F307220849C0B2114401F0FE
:100BE0007042C1F3130142EA411141EA800040F032
:100BF00000700068002818BF0120704700EA0F400D
:100C0000826912F0200FFBD101607047C0F8C81F45
:100C10007047D0F818C01CF0080FFAD1D0F82CC0DB
:100C20002CF0100CC0F82CC0D0F830C02CF0010C07
:100C30002CF4407CC0F830C0D0F830C0B1EB021FBB
:100C400034BF4CF0200C2CF0200CC0F830C038BF62
:100C50005208C900B1FBF2F1491C49088A094262F5
:100C600001F03F018162C36200218161C16A41F0EC
:100C70001001C162016B40F2013211430163704700
:100C8000C16A41F01001C162016B40F201321143AF
:100C90000163704770B504460D4616460E4951F87B
:100CA0002400FFF781FF00B970BD0C4850F8240004
:100CB0000B490860084951F82400FFF761FF6023E1
:100CC0002A46314606480068FFF7A3FF044800683B
:100CD000FFF7D6FF00BFE7E73C1000003010000030
:100CE000040000200FB408B503A8009000990298F2
:100CF00000F006F80020009001B05DF814FB000041
:100D00002DE9F34F85B0064612E1002400E0641C93
:100D1000305D252802D0305D0028F8D121463046CC
:100D200000F016F9264430782528EDD1761C0025F0
:100D30004FF0200B00BF16F8011B382932D014DC0D
:100D400033292AD008DC25296FD0302922D0312937
:100D500021D032296AD11FE034291FD035291ED075
:100D600036291DD03729F5D11BE0692935D008DC9B
:100D7000392918D0582972D0632922D06429E9D1A1
:100D80002AE070296CD073293CD0752958D0782975
:100D9000E0D163E000BF00BF00BF00BF00BF00BFE5
:100DA00000BF00BF00BF16F8010C302801D105B903
:100DB000834605EB8500450016F8010C30380544E4
:100DC000B9E70698006804900698001D0690012176
:100DD00004A800F0BDF8AAE000BF069800680490DF
:100DE0000698001D06904FF000080498002805DAC8
:100DF0000498404204904FF0010901E04FF00009CF
:100E00000A2739E0069850F804AB0690002400E069
:100E1000641C1AF804000028FAD12146504600F05C
:100E200097F8A5420BD92D1B05E076E07AE0012169
:100E300043A000F08DF8281EA5F10105F7D176E05A
:100E40000698006804900698001D06904FF0000870
:100E50000A274FF000090FE001E001E000BF00BFEA
:100E60000698006804900698001D06904FF0000850
:100E700010274FF0000900BF012401E07C436D1EE4
:100E800004FB07F00499884205D804FB07F0B0FB87
:100E9000F7F0A042F2D0B9F1000F00D06D1EB9F109
:100EA000000F0AD0BBF1300F07D12D22404608F1C8
:100EB00001080DF800204FF00009012D0BD9102D6D
:100EC00009D26D1E05E0404608F101080DF800B09A
:100ED0006D1E002DF7D1B9F1000F05D02D2240462F
:100EE00008F101080DF8002010E00498B0FBF4F0C0
:100EF000B0FBF7F107FB1100124909680A5C404694
:100F000008F101080DF80020B4FBF7F4002CECD137
:100F10004146684600F01CF809E0701E012100F00F
:100F200017F804E0052108A000F012F800BF00BF88
:100F3000307800287FF4E9AE07B0BDE8F08F0000FC
:100F4000200000002C1000004552524F52000000BB
:100F500070B505460E4600240DE0285D0A2804D130
:100F60000D2107480068FFF74BFE295D0448006823
:100F7000FFF746FE641CB442EFD3204670BD00006C
:100F80000400002002E008C8121F08C1002AFAD19C
:100F900070477047002001E001C1121F002AFBD1F9
:100FA0007047000008B51D491D48FFF777FC1D4834
:100FB000FFF7E6FD00BF1B48FFF70CFE0028FAD044
:100FC000FFF748F9FFF7B4F9FFF7D8F90121164800
:100FD000FFF745FC21E000216846FFF757F904467A
:100FE0009DF8000000F0010040B104F0010028B1BC
:100FF000012211460C48FFF74EFC0CE09DF8000062
:1010000000F0020038B104F0020020B100220121FA
:101010000548FFF740FCFFF71FFADCE7000E270743
:10102000800600F10C0800F000400640C4160000E5
:1010300000C0004000D0004000E00040001800F078
:10104000011800F0021800F0FF1FC82091215A2259
:101050002223EA23B12477253D260227C5278828A5
:101060004929092AC72A832B3E2CF72CAD2D622E45
:10107000142FC52F72301D31C6316C320F33AF3390
:101080004C34E5347C350F369F362C37B5373A383B
:10109000BB383939B239283A9A3A083B713BD63BCA
:1010A000373C943CEC3C403D8F3DDA3D203E613E78
:1010B0009E3ED63E093F373F613F863FA63FC13F38
:1010C000D73FE83FF53FFC3FFE3FFC3FF53FE83FA1
:1010D000D73FC13FA63F863F613F373F093FD63EDE
:1010E0009E3E613E203EDA3D8F3D403DEC3C943CCF
:1010F000373CD63B713B083B9A3A283AB2393939EA
:10110000BB383A38B5372C379F360F367C35E53447
:101110004C34AF330F336C32C6311D317230C52FB2
:10112000142F622EAD2DF72C3E2C832BC72A092AB3
:1011300049298828C52702273D267725B124EA2397
:1011400022235A229121C820FF1F361F6D1EA41D85
:10115000DC1C141C4D1B871AC119FC183918761792
:10116000B516F51537157B14C013071351129C11D2
:10117000EA1039108C0FE10E380E920DEF0C4F0C67
:10118000B20B190B820AEF090000000000000000FA
:10119000000000000000000000000000000000004F
:1011A000000000000000000000000000000000003F
:1011B000000000000000000000000000000000002F
:1011C000000000000000000000000000000000001F
:1011D000000000000000000000000000000000000F
:1011E00000000000000000000000000000000000FF
:1011F00000000000000000000000000000000000EF
:1012000000000000000000000000000000000000DE
:1012100000000000000000000000000000000000CE
:1012200000000000000000000000000000000000BE
:1012300000000000000000000000000000000000AE
:10124000000000000000000000400040100000000E
:101250000080054010000000005000401100000018
:1012600000900540110000000060004012000000E6
:1012700000A00540120000000070004013000000B4
:1012800000B00540130000000040024014000000C0
:1012900000C0054014000000005002402E00000075
:1012A00000D005402E000000006002402F0000002A
:1012B00000E005402F0000000070024030000000F8
:1012C00000F005403000000000D003404600000060
:1012D00000000640460000000010064047000000E5
:1012E0000020064048000000003006407F0000005B
:1012F00000400640800000000050064084000000CE
:10130000006006408C00000000400040100000001B
:101310000080054010000000005000401100000057
:101320000090054011000000006000401200000025
:1013300000A00540120000000070004013000000F3
:1013400000B00540130000000040024014000000FF
:1013500000C0054014000000005002402E000000B4
:1013600000D005402E000000006002402F00000069
:1013700000E005402F000000007002403000000037
:1013800000F005403000000000D0034043000000A2
:10139000000006404300000000100640440000002A
:1013A00000200640450000000030064058000000C4
:1013B0000040064059000000005006405C0000005C
:1013C0000060064064000000007006406C000000F1
:1013D000008006406D000000009006407F00000085
:1013E0000040004000800540005000400090054053
:1013F0000060004000A005400070004000B00540C3
:101400000040024000C005400050024000D00540AE
:101410000060024000E005400070024000F005401E
:1014200000D00340000006400010064000100640B7
:1014300000200640002006400030064000300640F4
:101440000040064000400640005006400050064064
:1014500000600640006006400070064000700640D4
:101460000080064000800640009006400090064044
:1014700000688909001C4E0E40420F0000201C002D
:1014800080841E0000802500999E360000403800B0
:1014900000093D0000803E0000004B00404B4C0026
:1014A00000204E00808D5B0000C05D000080700059
:1014B00000127A0000007D0080969800001BB700A3
:1014C0000080BB00C0E8CE00647ADA000024F4009B
:1014D0000000FA0080A81201002D310100366E01D3
:1014E00040787D0140000000000000000001000085
:1014F0003E0008000000000000010000A000000005
:10150000020000000001000034540100000000004F
:10151000000100002B700600000000000001000028
:10152000280000000000000000010000270001006A
:10153000000000000001000020000000000000008A
:101540000001000050000000020000000001000047
:101550001AAC000000000000000100001794090010
:1015600000000000000100001698050000000000C7
:101570000001000014000000000000000001000055
:10158000138008000000000000010000A00000001F
:101590000800000000010000100000000000000032
:1015A000000100002800000002000000000100000F
:1015B0004000000004000000000100006000000086
:1015C00000000000000100005D000C0000000000B1
:1015D00000010000500000000000000000010000B9
:1015E0004E000200000000000001000041AC0100BC
:1015F00000000000000100003C00000000000000AE
:10160000000100003A800900000000000001000015
:101610003000000000000000000100002800000071
:101620000000000000010000270001000000000091
:10163000000100002360060000000000000100001F
:101640002160080000000000000100001E000000F2
:1016500000000000000100001DC0040000000000A8
:101660000001000050000000020000000001000026
:10167000180000000000000000010000140000003D
:1016800000000000000100006000000004000000F5
:10169000000100000024F40030003000005A620213
:1016A0009100910000879303D200D20000B4C404DB
:1016B0001301130100E1F50554015401000E270741
:1016C000950195013031323334353637383961621E
:1016D0006364656600000000F8160000000000204A
:1016E0000C000000840F0000041700000C00002014
:1016F00004020000940F000003000000000000003E
:0417000000000000E5
:040000050000021DD8
:00000001FF
