:020000040000FA
:10000000100200200102000015020000170200008B
:10001000190200001902000019020000000000008F
:1000200000000000000000000000000019020000B5
:10003000190200000000000019020000190200006F
:100040001902000019020000190200001902000044
:100050001902000019020000190200001902000034
:100060001902000019020000190200001902000024
:100070001902000019020000190200001902000014
:100080001902000019020000190200001902000004
:1000900019020000190200001902000019020000F4
:1000A00019020000190200001902000019020000E4
:1000B00019020000190200001902000019020000D4
:1000C00019020000190200001902000019020000C4
:1000D00019020000190200001902000019020000B4
:1000E00019020000190200001902000019020000A4
:1000F0001902000019020000190200001902000094
:100100001902000019020000190200001902000083
:100110001902000019020000190200001902000073
:100120001902000019020000190200001902000063
:100130001902000019020000190200001902000053
:100140001902000019020000190200001902000043
:100150000000000000000000190200001902000069
:10016000190200001902000000000000190200003E
:100170001902000019020000190200001902000013
:100180001902000019020000190200001902000003
:1001900019020000190200001902000019020000F3
:1001A00019020000190200001902000019020000E3
:1001B00019020000190200001902000019020000D3
:1001C00019020000190200001902000019020000C3
:1001D00019020000190200001902000019020000B3
:1001E00019020000190200001902000019020000A3
:1001F0001902000019020000190200001902000093
:100200004EF68850CEF20000016841F470010160A2
:1002100000F004B8FEE7FEE7FEE70000DFF80CD0D0
:1002200000F012F900480047D50D00001002002030
:100230000138FDD170472DE9F04D81EA030404F047
:10024000004B21F0004514464FF0000A23F0004116
:1002500050EA050220D054EA01021DD0C5F30A5726
:100260000246C5F31303C1F31300C1F30A5640F469
:10027000801543F48013A7EB0608101BD64608F23E
:10028000FD3873EB050002D308F1010801E0921874
:100290005B41B8F1000F03DA00200146BDE8F08DA4
:1002A00000204FF48011064684460EE0171B73EBC6
:1002B000050705D3121B63EB050306434CEA010C4B
:1002C00049084FEA300092185B4150EA0107EDD12E
:1002D00052EA030012D082EA040083EA05010843CF
:1002E00005D0101BAB4106D20122002306E00022FC
:1002F0004FF0004302E06FF0010253101AEB0600CA
:100300004CEB085110EB0A0041EB0B01BDE8F04D3E
:1003100000F03CB8C1F30A5210B5C1F3130140F22A
:10032000FF3341F480119A4201DA002010BD40F2FF
:1003300033439A42A2F2334203DC524200F016F8F1
:1003400010BD904010BD00F0004230F000400AD0D7
:10035000C10D01F56071C0F3160042EA0151C208F7
:10036000400711437047002001467047202A04DBF4
:10037000203A21FA02F00021704721FA02F3D0401E
:10038000C2F12002914008431946704710B5141E6F
:1003900073F1000408DA401C41F1000192185B413E
:1003A0001A4301D120F0010010BD2DE9F04D924615
:1003B0009B4611B1B1FA81F202E0B0FA80F220322C
:1003C000904600F053F804460F4640EA0A0041EA1E
:1003D0000B0153465A46084313D0114653EA010015
:1003E00019D0C8F140025046FFF7C0FF05460E463F
:1003F00050465946424600F039F8084305D00120DE
:1004000004E020463946BDE8F08D0020054346EA69
:10041000E0762C4337430A986305E40AA0EB080012
:100420000022FD0A44EA47540A3002D50020014662
:10043000E9E7010510196941DDE90845001969413D
:10044000BDE8F04DA2E70000064C074D06E0E0686D
:1004500040F0010394E8070098471034AC42F6D30B
:10046000FFF7E0FE8C130000AC130000202A04DB31
:10047000203A00FA02F1002070479140C2F12003B7
:1004800020FA03F3194390407047000010B50A4862
:1004900000F0AAFB00220321084800F03FF90A23DC
:1004A00001220321054800F04DF90321034800F023
:1004B00007FA0349087010BD080800F000D0034097
:1004C000040000202DE9F04105460E460321224894
:1004D00000F0F6F907460EB1F84330701F48007877
:1004E00087EA00041E4800781E49097848401C49E4
:1004F00008701C480078C0431A49087018480078F2
:1005000020401749087017480078204015490870A6
:1005100013480078097808431049097808400F49C2
:1005200008700F4801780F480078014327EA01005E
:100530000A490978084309490870094800780949B7
:1005400009780843444005B12C7004480078C04342
:10055000C0B2BDE8F081000000D0034004000020DC
:10056000050000200600002010B50E4800F03CFBFE
:100570000D4800F039FB012000F080F940F2014005
:1005800000F07CF903214FF0402000F0AAF905218A
:10059000064800F069FB064A4FF4E131002000F004
:1005A000A7FB10BD000800F0001800F000C00040DC
:1005B0000024F40010B5144800F016FB12480C306B
:1005C00000F012FB00BF104800F038FB0028FAD002
:1005D00000BF0D480C3000F031FB0028F9D030216D
:1005E0000A4800F070F90321094800F06CF90A2369
:1005F00001223021054800F0A5F80A230122032139
:10060000034800F09FF810BD010800F000500040C2
:100610000050064070B505460C46002220212A48AD
:1006200000F06DF9012000F0BDFB012C05D1002286
:100630000121264800F063F906E0022C04D10022D3
:100640001021214800F05BF9012000F0ABFB0026EF
:1006500020E005F4000028B1022211461B4800F0FA
:100660004EF904E000220221184800F048F9202247
:100670001146154800F043F9012000F093FB6D008E
:10068000012000F08FFB002220210F4800F037F9F5
:10069000701CC6B2182EDCDB012C05D101221146DC
:1006A0000A4800F02CF906E0022C04D11022114671
:1006B000054800F024F9012000F074FB20221146C7
:1006C000014800F01CF970BD005000400050064089
:1006D00010B52DED068BB0EE408A9FED0D0A28EE89
:1006E000000A10EE101A0846FFF72DFE41EC1A0B17
:1006F0009FED080B53EC102BFFF79DFD41EC190B00
:10070000FFF708FE0446A0B2BDEC068B10BD00004A
:10071000000080470000000000001440D0F80034C2
:1007200012F0010F14BF0B438B43C0F8003412F0DA
:10073000020FD0F8202414BF114322EA0101C0F8AF
:10074000201470472DE9F00301264FF0000C03251B
:10075000C2F3411706FA0CF40C4211D0D0F8C48F42
:100760004FEA4C0405FA04F928EA0908C0F8C48FD6
:10077000D0F8C48F07FA04F448EA0404C0F8C44F60
:100780000CF1010C0CF0FF0CBCF1080FE2D3D0F817
:1007900000C512F0010F14BF4CEA010C2CEA010C49
:1007A000C0F800C5D0F804C512F0020F14BF4CEA1F
:1007B000010C2CEA010CC0F804C5D0F808C512F0F1
:1007C000040F14BF4CEA010C2CEA010CC0F808C558
:1007D000D0F818C512F0080F14BF4CEA010C2CEA2F
:1007E000010CC0F818C512F0100FD0F83C2514BF4A
:1007F0000A438A43C0F83C25D0F80C2513F0010FBA
:1008000014BF0A438A43C0F80C25D0F8102513F012
:10081000020F14BF0A438A43C0F81025D0F81425EC
:1008200013F0040F14BF0A438A43C0F81425D0F80C
:100830001C2513F0080F14BF0A438A43C0F81C2577
:10084000D0F8442513F4007F14BF0A438A43C0F84C
:100850004425D0F8402513F4407F14BF0A438A434F
:10086000C0F84025D0F82825002B0CBF114322EA00
:100870000101C0F82815BDE8F00370470E4AC0F327
:100880000741D26E01238B401A420C4A1ABF02EB79
:10089000C101496852F83110020AD1F82C354FF0E5
:1008A0000F0C0CFA02FC00F00F0023EA0C0390403E
:1008B0001843C1F82C05704700E00F409410000069
:1008C00050F82100704730B50C4605460823012238
:1008D000FFF738FF21462846BDE830400122FFF7E8
:1008E0001DBF30B50C4605460222FFF717FF214613
:1008F0002846BDE8304008230122FFF723BF40F817
:10090000212070472DE9F003AD4D02462868AD4B1C
:100910001840A0F18053B3F5A02358D002F0380955
:10092000DFF8A482C2F38414B9F1100F24D0B9F116
:10093000300F04BF47F230504FF400130CD0382072
:10094000904304BF4FF40040C30105D012F0380FAC
:100950001CBF0020034613D09C4F12F4605F4FF081
:10096000000618BF00222CD057F8324044457DD3F2
:1009700007EBC2025268DFE0002340461524EBE794
:10098000A4F10900122822D29148D5F87CC04FF07A
:100990004C7350F824002CF01C0C072CA8BF4CF012
:1009A000100CC5F87CC02E6D4FF4002C16F4807F1F
:1009B000D2D1BCF1010C0AD02E6D16F4807FF8D094
:1009C000CAE712F0380F18BFB9F1100F03D0BDE815
:1009D000F00300207047C2F30268DFF8F8C100227C
:1009E00057F83290E14503D307EBC202526803E0A7
:1009F000521C062AF4D33246C5F8C020D5F8B020E0
:100A0000DFF8D4C102EA0C0242F00042C5F8B0207F
:100A1000DFF8C8C1A4F109024C1E5CF828C0A44448
:100A2000BCFBF1FCD5F8B0101943C5F8B01008EBC9
:100A3000C80101EB41046A4902EB420201EBC40127
:100A400001EB82046468C5F86441D5F864416FF035
:100A5000FF0808EB0C2C44EA0C0CC5F864C151F8F3
:100A60002210D5F8602102F4000200E05FE011439B
:100A7000C5F86011D5F86011D5F86021C1F389215E
:100A8000C2F30904D5F86421C2F3042202F1010C77
:100A9000D5F8642102F01F02521CB0FBF2F04A09A3
:100AA000C2F100084443424301EB481104EB5212E7
:100AB000484302EB9020B0FBFCF0410808460022BE
:100AC00057F832C0844503D307EBC200466802E002
:100AD000521C062AF4D3C5F8C060D5F8600110F4A2
:100AE000000F1DBFD5F8B00040F08040C5F8B00041
:100AF000D5F8600104BF40F40000C5F860014FF470
:100B00000040D5F8682112F0010F02D1401E0028E4
:100B1000F7DC002808BF002148D0D5F8B000184302
:100B200040F0010040F01040C5F8B0003EE0521C1B
:100B3000062AFFF419AF3246C5F8C020D5F8602167
:100B400022F40002C5F86021D5F8B020DFF894C087
:100B500002EA0C0242F00042C5F8B020002908BFAA
:100B60004FF0000C0AD0B0FBF1FCBCF1000F18BF35
:100B7000ACF1010C0CF10101B0FBF1F108460022CF
:100B800057F83240844203D307EBC200466802E0C4
:100B9000521C062AF4D3C5F8C060D5F8B00043EA69
:100BA0008C22104340F00040C5F8B000D5F8B000EA
:100BB00020F47000C5F8B000BDE8F00308467047A7
:100BC00000E00F400000FF700024F4004813000014
:100BD0002C11000040787D0100FC0FE02411000082
:100BE00098110000FF0300EFC0F307230749C0B2CC
:100BF000194401F07043C1F3130143EA411141EA82
:100C0000800040F0007001220260704700E60F4053
:100C1000C0F307220849C0B2114401F07042C1F389
:100C2000130142EA411141EA800040F0007000687F
:100C3000002818BF0120704700E30F40C0F30722CF
:100C40000849C0B2114401F07042C1F3130142EAF5
:100C5000411141EA800040F000700068002818BF90
:100C60000120704700EA0F40C0F8C81F7047D0F855
:100C700018C01CF0080FFAD1D0F82CC02CF0100CC2
:100C8000C0F82CC0D0F830C02CF0010C2CF4407C03
:100C9000C0F830C0D0F830C0B1EB021F34BF4CF008
:100CA000200C2CF0200CC0F830C038BF5208C9000E
:100CB000B1FBF2F1491C49088A09426201F03F0187
:100CC0008162C36200218161C16A41F01001C16289
:100CD000016B40F20132114301637047C16A41F078
:100CE0001001C162016B40F2013211430163704790
:100CF00070B504460D4616460E4951F82400FFF71C
:100D000087FF00B970BD0C4850F824000B490860FB
:100D1000084951F82400FFF767FF60232A4631464F
:100D200006480068FFF7A3FF04480068FFF7D6FFF6
:100D300000BFE7E7F00E0000E40E0000080000200E
:100D400010B52DED028BB0EE408AB0EE480AFFF7E9
:100D5000BFFC044601212046FFF75CFCBDEC028B82
:100D600010BD10B52DED028BB0EE408AB0EE480AF2
:100D7000FFF7AEFC044602212046FFF74BFCBDEC1A
:100D8000028B10BD02E008C8121F08C1002AFAD168
:100D900070477047002001E001C1121F002AFBD1FB
:100DA0007047000070B50446640800BF074800683B
:100DB0000749B0FBF1F00321B0FBF1F52846FFF73E
:100DC00037FA2000A4F10104F0D170BD000000202A
:100DD00040420F002DED028B82B0B7EE000AB0EE5C
:100DE000408AB0EE000AF0EE408A36493648FFF7F6
:100DF00089FD364908603648FFF7F6FE00BF3448E3
:100E0000FFF71CFF0028FAD0FFF740FBFFF7ACFB11
:100E1000FFF7D0FB01212F48FFF755FDB0EE480A40
:100E2000FFF78EFFB0EE680AFFF79BFF49E0002155
:100E300001A8FFF747FB04469DF8040000F00100FD
:100E4000E8B104F00100D0B1012211462148FFF7BA
:100E500056FD9FED210A38EE000AB0EE408AB0EE52
:100E6000080AB4EEC08AF1EE10FA03DD9FED1B0A0A
:100E7000B0EE408AB0EE480AFFF762FF21E09DF82D
:100E8000040000F00200E0B104F00200C8B100224A
:100E900001211048FFF733FD9FED0F0A38EE800A5D
:100EA000F0EE408AB0EE080AF4EEC08AF1EE10FAD5
:100EB00003DD9FED0A0AF0EE408AB0EE680AFFF704
:100EC00050FFB4E7000E2707800600F10000002065
:100ED0000C0800F000400640CDCCCC3D00000000E6
:100EE0007813000000C0004000D0004000E0004047
:100EF000001800F0011800F0021800F00040004057
:100F0000100000000080054010000000005000406C
:100F1000110000000090054011000000006000403A
:100F20001200000000A00540120000000070004008
:100F30001300000000B00540130000000040024014
:100F40001400000000C005401400000000500240E2
:100F50002E00000000D005402E000000006002407E
:100F60002F00000000E005402F000000007002404C
:100F70003000000000F005403000000000D00340C9
:100F80004600000000000640460000000010064039
:100F900047000000002006404800000000300640E6
:100FA0007F00000000400640800000000050064026
:100FB00084000000006006408C00000000400040FB
:100FC00010000000008005401000000000500040AC
:100FD000110000000090054011000000006000407A
:100FE0001200000000A00540120000000070004048
:100FF0001300000000B00540130000000040024054
:101000001400000000C00540140000000050024021
:101010002E00000000D005402E00000000600240BD
:101020002F00000000E005402F000000007002408B
:101030003000000000F005403000000000D0034008
:10104000430000000000064043000000001006407E
:10105000440000000020064045000000003006402B
:1010600058000000004006405900000000500640B3
:101070005C00000000600640640000000070064054
:101080006C000000008006406D00000000900640EB
:101090007F000000004000400080054000500040FC
:1010A000009005400060004000A005400070004036
:1010B00000B005400040024000C005400050024022
:1010C00000D005400060024000E005400070024092
:1010D00000F0054000D0034000000640001006402C
:1010E0000010064000200640002006400030064068
:1010F00000300640004006400040064000500640D8
:101100000050064000600640006006400070064047
:1011100000700640008006400080064000900640B7
:101120000090064000688909001C4E0E40420F00E6
:1011300000201C0080841E0000802500999E36003F
:101140000040380000093D0000803E0000004B00D8
:10115000404B4C0000204E00808D5B0000C05D00C5
:101160000080700000127A0000007D0080969800D8
:10117000001BB7000080BB00C0E8CE00647ADA0034
:101180000024F4000000FA0080A81201002D3101B3
:1011900000366E0140787D01400000000000000034
:1011A000000100003E0008000000000000010000F7
:1011B000A000000002000000000100003454010003
:1011C00000000000000100002B700600000000007D
:1011D00000010000280000000000000000010000E5
:1011E00027000100000000000001000020000000B6
:1011F000000000000001000050000000020000009C
:10120000000100001AAC0000000000000001000016
:101210001794090000000000000100001698050066
:1012200000000000000100001400000000000000A9
:101230000001000013800800000000000001000011
:10124000A0000000080000000001000010000000E5
:101250000000000000010000280000000200000063
:101260000001000040000000040000000001000038
:101270006000000000000000000100005D000C00A4
:10128000000000000001000050000000000000000D
:10129000000100004E0002000000000000010000FC
:1012A00041AC010000000000000100003C00000013
:1012B00000000000000100003A800900000000006A
:1012C00000010000300000000000000000010000EC
:1012D00028000000000000000001000027000100BD
:1012E0000000000000010000236006000000000074
:1012F0000001000021600800000000000001000063
:101300001E00000000000000000100001DC00400DD
:10131000000000000001000050000000020000007A
:1013200000010000180000000000000000010000A3
:101330001400000000000000000100006000000038
:1013400004000000000100000024F4003000300020
:10135000005A62029100910000879303D200D200EC
:1013600000B4C4041301130100E1F5055401540154
:10137000000E270795019501303132333435363769
:10138000383961626364656600000000AC130000D8
:101390000000002010000000840D0000BC130000BD
:1013A0001000002000020000940D0000000000006A
:0C13B0000300000000000000000000002E
:040000050000021DD8
:00000001FF
